S012000055534152545F544553542E73726563E4
S11300000C942A000C9447000C9447000C9447006D
S11300100C9447000C9447000C9447000C94470040
S11300200C9447000C9447000C9447000C94470030
S11300300C9447000C9467020C9471020C944700D2
S11300400C9447000C9447000C9447000C94470010
S11300500C94470011241FBECFE5D8E0DEBFCDBF0E
S113006010E0A0E6B0E0E2E5F5E002C005900D92F4
S1130070A838B107D9F720E0A8E8B0E001C01D9284
S1130080AD38B207E1F70E94F9010C94A7020C9471
S113009000008FEF8ABB8EE087BB14BA82E081BB7D
S11300A00895863029F118F4853039F008958730A1
S11300B0D1F1883009F452C00895413059F42BB37A
S11300C081E090E002C0880F991F6A95E2F7822BC5
S11300D08BBB089541115CC02BB381E090E002C05A
S11300E0880F991F6A95E2F7809582238BBB089548
S11300F0413059F428B381E090E002C0880F991F81
S11301006A95E2F7822B88BB0895411141C028B358
S113011081E090E002C0880F991F6A95E2F780950C
S1130120822388BB0895413059F425B381E090E0DF
S113013002C0880F991F6A95E2F7822B85BB089548
S1130140411126C025B381E090E002C0880F991FB9
S11301506A95E2F78095822385BB0895413059F46E
S113016022B381E090E002C0880F991F6A95E2F7FC
S1130170822B82BB089541110BC022B381E090E031
S113018002C0880F991F6A95E2F78095822382BB8B
S11301900895863059F018F4853031F00895873089
S11301A039F0883039F008956BBB089568BB089521
S11301B068BB089562BB0895CF93C82F41E061E006
S11301C086E00E94510040E062E086E00E94510017
S11301D06C2F607F85E00E94C90041E063E086E007
S11301E00E9451008FE99FE00197F1F700C00000E1
S11301F040E063E086E00E9451008FE99FE00197B0
S1130200F1F700C000006C2F6295607F85E00E94CA
S1130210C90041E063E086E00E9451008FE99FE05D
S11302200197F1F700C0000040E063E086E00E941F
S113023051008FE99FE00197F1F700C00000CF91D2
S11302400895CF93C82F40E061E086E00E945100FA
S113025040E062E086E00E9451006C2F607F85E000
S11302600E94C90041E063E086E00E9451008FE9EA
S11302709FE00197F1F700C0000040E063E086E0F2
S11302800E9451008FE99FE00197F1F700C0000040
S11302906C2F6295607F85E00E94C90041E063E0B5
S11302A086E00E9451008FE99FE00197F1F700C0BA
S11302B0000040E063E086E00E9451008FE99FE087
S11302C00197F1F700C00000CF9108952FE785EB67
S11302D091E0215080409040E1F700C0000083E3AA
S11302E00E94210182E30E94210188E20E942101EF
S11302F08FE99FE00197F1F700C000008CE00E94B5
S113030021018FE99FE00197F1F700C0000081E02F
S11303100E9421018FE39FE10197F1F700C00000E3
S113032086E00E942101089581E00E9421018FE16D
S11303309EE40197F1F700C000000895CF93DF9386
S113034000D000D0CDB7DEB7198290E49A8394E14F
S11303509B8394E59C83623008F060E0E8E8F0E079
S113036083836483E1E0F0E0EC0FFD1FE60FF11DF1
S11303709081890F80680E9421010F900F900F9047
S11303800F90DF91CF910895CF93DF93EA010E94FC
S11303909E0129C080918B00803148F0E8E8F0E0AC
S11303A0138264816F5F648380E00E949E01888170
S11303B08A3049F4E8E8F0E064816F5F6483838104
S11303C00E949E010FC08D3031F460918C0080E05A
S11303D00E949E0107C00E94DC00E8E8F0E08381EF
S11303E08F5F8383219688818111D4CFDF91CF9150
S11303F00895CF93DF93CDB7DEB7E2970FB6F894A5
S1130400DEBF0FBECDBF0E9449000E9466010E945C
S11304102A021A821982FE01339680E3DF011D92BB
S11304208A95E9F762E370E0CE0101960E948B029F
S113043080E690E00E947B02CE0101960E947B023E
S11304400E949401AE014F5F5F4F60E080E00E9424
S1130450C401DFCF80B5826080BD80B5846080BD7B
S11304608AB184608AB980B58F7E80BD80B58F7D66
S113047080BD80B5877F80BD8AB180618AB98AB129
S113048088608AB980B58F7B80BD8AB18F778AB93D
S11304908AB18F7B8AB98AB18F7D8AB98BB18D7FFE
S11304A08BB910BC87E689B908958CB98BB186FBEA
S11304B0882780F98BB98823C9F308958BB1881FE5
S11304C08827881F8BB98823C9F38CB108951F929C
S11304D00F920FB60F9211240F900FBE0F901F9022
S11304E018951F920F920FB60F9211240F900FBE02
S11304F00F901F901895CF93DF93EC0106C02196BF
S11305000E9455028BB1877F8BB988818111F7CF07
S1130510DF91CF9108950F931F93CF938C01C0E087
S113052001C0C92F0E945E02F801EC0FF11D808307
S113053091E09C0F8A3011F08D3099F7CE5FF8016D
S1130540EC0FF11D1082CF911F910F910895F89433
S1050550FFCFD7
S113055254686520537472696E67207761732077DB
S113056272697474656E20746F2074686520736395
S10B05727265656E203A200059
S9030000FC
