S01B000037536567656D6574446973706C61794475616C2E73726563AC
S11300000C942A000C943C000C943C000C943C008E
S11300100C943C000C943C000C943C000C943C006C
S11300200C943C000C943E000C943C000C943C005A
S11300300C943C000C943C000C943C000C943C004C
S11300400C943C000C943C000C943C000C943C003C
S11300500C943C0011241FBECFE5D8E0DEBFCDBF19
S113006020E0A0E6B0E001C01D92A236B207E1F79D
S11300700E9460000C94BD000C9400001F920F922B
S11300800FB60F9211248F939F93809160009091EB
S1130090610001969093610080936000843691051D
S11300A024F010926100109260008BE791EE9DBDE8
S11300B08CBD9F918F910F900FBE0F901F9018953C
S11300C080EF8ABB8EE087BB8BE791EE9DBD8CBD34
S11300D01FBC85E08EBD84E089BF789482E088BB34
S11300E080916000909161002AE030E0B9010E94A3
S11300F095008295807F8BBB8FE39CE90197F1F794
S113010000C0000084E088BB809160009091610091
S1130110B9010E9495006295607F6BBB8FE39CE9F7
S11301200197F1F700C00000D9CF97FB072E16F412
S1130130009407D077FD09D00E94A90007FC05D0E0
S11301403EF4909581959F4F0895709561957F4FEA
S11301500895AA1BBB1B51E107C0AA1FBB1FA6170A
S1130160B70710F0A61BB70B881F991F5A95A9F75C
S111017080959095BC01CD010895F894FFCFC1
S9030000FC
