S01600004469676974616C436F756E7465722E7372656370
S11300000C942A000C943F000C943F000C943F0085
S11300100C943F000C943F000C943F000C943F0060
S11300200C943F000C943F000C943F000C943F0050
S11300300C943F000C943F000C943F000C943F0040
S11300400C943F000C943F000C943F000C943F0030
S11300500C943F0011241FBECFE5D8E0DEBFCDBF16
S113006010E0A0E6B0E0E8EEF1E002C005900D92E9
S1130070A637B107D9F70E9441000C94F2000C9402
S11300800000CF93DF93CDB7DEB764970FB6F89433
S1130090DEBF0FBECDBF8FE784BB83E081BB8CE1A5
S11300A082BB84E1E2E6F0E0DE01119601900D925C
S11300B08A95E1F72FEF41EE84E0215040408040E3
S11300C0E1F700C0000082B3816082BB82B38D7F00
S11300D082BB80916000909161002AE030E0B90118
S11300E00E94CA00FC01EE0FFF1F81E090E08C0F1C
S11300F09D1FE80FF91F808185BB9FEF40E782E0D9
S1130100915040408040E1F700C0000082B382601B
S113011082BB82B38E7F82BB80916000909161002C
S1130120B9010E94CA00FB01EE0FFF1F81E090E0BD
S11301308C0F9D1FE80FF91F808185BB9FEF20E77F
S113014042E0915020404040E1F700C00000829915
S11301500BC08091600090916100019690936100C2
S113016080936000829BFECF83990BC080916000D6
S11301709091610001979093610080936000839B4C
S1130180FECF8499A0CF1092610010926000849BEE
S1130190FECF99CF97FB072E16F4009407D077FD76
S11301A009D00E94DE0007FC05D03EF490958195AD
S11301B09F4F0895709561957F4F0895AA1BBB1BAF
S11301C051E107C0AA1FBB1FA617B70710F0A61B53
S11301D0B70B881F991F5A95A9F780959095BC0174
S10B01E0CD010895F894FFCF4E
S11301E837003F0006005B004F0066006D007D008D
S10901F807007F006F0008
S9030000FC
