:100000000C942A000C94BD000C9434000C94340021
:100010000C9434000C9434000C9434000C94340090
:100020000C9434000C9434000C9434000C94340080
:100030000C9434000C9434000C9434000C94340070
:100040000C9434000C9434000C9434000C94340060
:100050000C94340011241FBECFE5D8E0DEBFCDBF25
:100060000E94CF000C94DD000C9400001ABA17BA5D
:1000700014BA88E081BB089585B78E7F85BF85B7A8
:10008000826085BF8BB780648BBF0895811104C0E7
:100090008BB780648BBF0895813021F48BB7806863
:1000A0008BBF0895823019F48BB780628BBF08959F
:1000B000811124C0613069F028F0623089F063302A
:1000C000B1F0089585B78E7F85BF85B78D7F85BFD9
:1000D000089585B7816085BF85B78D7F85BF0895F9
:1000E00085B78E7F85BF85B7826085BF089585B748
:1000F000816085BF85B7826085BF0895813021F515
:10010000613069F028F0623089F06330B1F0089511
:1001100085B78B7F85BF85B7877F85BF089585B7F6
:10012000846085BF85B7877F85BF089585B78B7F3E
:1001300085BF85B7886085BF089585B7846085BF12
:1001400085B7886085BF0895823091F4623019F0D8
:10015000633041F0089585B78B7F85BF85B7886090
:1001600085BF089585B7846085BF85B7886085BFE2
:1001700008958FB780688FBF08951F920F920FB6B2
:100180000F9211248F939F9392B388E0892782BBAB
:100190009F918F910F900FBE0F901F9018950E9406
:1001A00036000E943C0080E00E94460062E080E051
:0E01B0000E9458000E94B900FFCFF894FFCFC4
:00000001FF
