:100000000C942A000C9447000C9447000C94470071
:100010000C9447000C9447000C9447000C94470044
:100020000C9447000C9447000C9447000C94470034
:100030000C9447000C9447000C9447000C94470024
:100040000C9447000C9447000C9447000C94470014
:100050000C94470011241FBECFE5D8E0DEBFCDBF12
:1000600010E0A0E6B0E0E6EEF5E002C005900D92EB
:10007000A23AB107D9F720E0A2EAB0E001C01D9290
:10008000A73AB207E1F70E941C020C94F1020C940B
:1000900000008FEF8ABB8EE087BB14BA11BA0895B7
:1000A000863029F118F4853039F008958730D1F180
:1000B000883009F452C00895413059F42BB381E0DF
:1000C00090E002C0880F991F6A95E2F7822B8BBBE4
:1000D000089541115CC02BB381E090E002C0880F0D
:1000E000991F6A95E2F7809582238BBB0895413072
:1000F00059F428B381E090E002C0880F991F6A95F7
:10010000E2F7822B88BB0895411141C028B381E0FA
:1001100090E002C0880F991F6A95E2F780958223CC
:1001200088BB0895413059F425B381E090E002C0C6
:10013000880F991F6A95E2F7822B85BB08954111BC
:1001400026C025B381E090E002C0880F991F6A9510
:10015000E2F78095822385BB0895413059F422B39C
:1001600081E090E002C0880F991F6A95E2F7822B28
:1001700082BB089541110BC022B381E090E002C020
:10018000880F991F6A95E2F78095822382BB0895B4
:10019000863059F018F4853031F00895873039F001
:1001A000883039F008956BBB089568BB089568BB2B
:1001B000089562BB0895CF93C82F41E061E086E0C7
:1001C0000E94500040E062E086E00E9450006C2FE8
:1001D000607F85E00E94C80041E063E086E00E9405
:1001E00050008FE99FE00197F1F700C0000040E068
:1001F00063E086E00E9450008FE99FE00197F1F7ED
:1002000000C000006C2F6295607F85E00E94C800EE
:1002100041E063E086E00E9450008FE99FE0019793
:10022000F1F700C0000040E063E086E00E9450006B
:100230008FE99FE00197F1F700C00000CF9108958A
:10024000CF93C82F40E061E086E00E94500040E07C
:1002500062E086E00E9450006C2F607F85E00E9483
:10026000C80041E063E086E00E9450008FE99FE013
:100270000197F1F700C0000040E063E086E00E94D3
:1002800050008FE99FE00197F1F700C000006C2F4C
:100290006295607F85E00E94C80041E063E086E0EF
:1002A0000E9450008FE99FE00197F1F700C0000025
:1002B00040E063E086E00E9450008FE99FE00197F4
:1002C000F1F700C00000CF9108952FE785EB91E092
:1002D000215080409040E1F700C0000083E30E947D
:1002E000200182E30E94200188E20E9420018FE920
:1002F0009FE00197F1F700C000008CE00E94200110
:100300008FE99FE00197F1F700C0000081E00E94B3
:1003100020018FE39FE10197F1F700C0000086E024
:100320000E942001089588E10E9420010895CF9342
:10033000DF9300D000D0CDB7DEB7198290E49A8366
:1003400094E19B8394E59C83623008F060E0E2EAEC
:10035000F0E083836483E1E0F0E0EC0FFD1FE60F43
:10036000F11D9081890F80680E9420010F900F90ED
:100370000F900F90DF91CF910895CF93DF93EA0113
:100380000E94970129C08091A500803148F0E2EADF
:10039000F0E0138264816F5F648380E00E949701C4
:1003A00088818A3049F4E2EAF0E064816F5F648317
:1003B00083810E9497010FC08D3031F46091A600B7
:1003C00080E00E94970107C00E94DB00E2EAF0E0B3
:1003D00083818F5F8383219688818111D4CFDF91C0
:1003E000CF910895CF93C42F0E9497018C2F0E9424
:1003F000DB00CF9108950E94DB0008950F931F93B7
:10040000CF938B01877090E0880F991F880F991FF9
:10041000880F991F80640E942001C0E007C0F80186
:10042000EC0FF11D80810E94FB01CF5FC830B8F353
:10043000CF911F910F910895CF93DF93CDB7DEB782
:10044000C054D1090FB6F894DEBF0FBECDBF0E94D5
:1004500049000E94650188E0E0E6F0E0DE011196C7
:1004600001900D928A95E1F788E0E8E6F0E0DE0180
:10047000199601900D928A95E1F788E0E0E7F0E0A7
:10048000DE01519601900D928A95E1F788E0E8E748
:10049000F0E0DE01599601900D928A95E1F788E02F
:1004A000E0E8F0E0DE01919601900D928A95E1F787
:1004B00088E0E8E8F0E0DE01999601900D928A95D7
:1004C000E1F788E0E0E9F0E0DE01D19601900D92DD
:1004D0008A95E1F788E0E8E9F0E0DE01D99601903D
:1004E0000D928A95E1F7BE016F5F7F4F80E00E9419
:1004F000FE01BE016F5E7F4F81E00E94FE01BE01E2
:10050000675E7F4F82E00E94FE01BE01675D7F4F04
:1005100083E00E94FE01BE01675F7F4F84E00E947E
:10052000FE01BE016F5C7F4F85E00E94FE01BE01AF
:100530006F5D7F4F86E00E94FE01BE01675C7F4FCA
:1005400087E00E94FE0140E060E08DE00E94F20141
:1005500041E060E08CE00E94F20142E060E08BE06C
:100560000E94F20143E060E08AE00E94F20140EA6A
:1005700050E060E089E00E94BD0144E060E088E076
:100580000E94F20145E060E087E00E94F20141E054
:1005900060E086E00E94F20146E060E085E00E94B3
:1005A000F20140EA50E060E084E00E94BD0147E0D3
:1005B00060E083E00E94F2012FEF83ED90E3215091
:1005C00080409040E1F700C000000E9493012FEFAF
:1005D00084E39CE0215080409040E1F700C000009F
:0605E000F4CFF894FFCFF8
:1005E60000040006011F000000000006011F0004B1
:1005F600040404040407000004040404041C0000AA
:100606000101010111110A0400000202021F00008B
:1006160000000000001F0A04000A1F1F1F0E04002E
:020626002000B2
:00000001FF
