S0140000547261666669634C696768742E7372656359
S11300000C942A000C9434000C9434000C943400A6
S11300100C9434000C9434000C9434000C9434008C
S11300200C9434000C9434000C9434000C9434007C
S11300300C9434000C9434000C9434000C9434006C
S11300400C9434000C9434000C9434000C9434005C
S11300500C94340011241FBECFE5D8E0DEBFCDBF21
S11300600E9436000C9476000C9400008FE084BB50
S113007087E081BB15BA12BA81E082BB80E090E0D0
S11300800BC085BB2FEF39E648E12150304040409A
S1130090E1F700C0000001968A30910594F382E0F4
S11300A082BB80E090E00BC085BB2FEF39E648E1CE
S11300B0215030404040E1F700C0000001968330F9
S11300C0910594F384E082BB80E090E00BC085BB93
S11300D02FEF39E648E1215030404040E1F700C0BD
S11300E0000001968A30910594F3C6CFF894FFCFAF
S9030000FC
