S0180000384269744E756D6265724F6E4C4544732E7372656347
S11300000C942A000C9434000C9434000C943400A6
S11300100C9434000C9434000C9434000C9434008C
S11300200C9434000C9434000C9434000C9434007C
S11300300C9434000C9434000C9434000C9434006C
S11300400C9434000C9434000C9434000C9434005C
S11300500C94340011241FBECFE5D8E0DEBFCDBF21
S11300600E9436000C944C000C9400008FEF84BB6B
S113007015BA80E090E00BC085BB2FEF39EF40E06C
S1130080215030404040E1F700C0000001968F3F0E
S10F0090910591F38CF3EDCFF894FFCFB1
S9030000FC
