S01100004C45444F6E654469722E73726563FD
S11300000C942A000C9434000C9434000C943400A6
S11300100C9434000C9434000C9434000C9434008C
S11300200C9434000C9434000C9434000C9434007C
S11300300C9434000C9434000C9434000C9434006C
S11300400C9434000C9434000C9434000C9434005C
S11300500C94340011241FBECFE5D8E0DEBFCDBF21
S11300600E9436000C9468000C9400008FEF84BB4F
S113007081BB15BA12BA81E085BB20E030E00EC026
S11300804FEF81EE94E0415080409040E1F700C092
S1130090000085B3880F85BB2F5F3F4F28303105A3
S11300A07CF381E082BB20E030E00EC04FEF81EEB4
S11300B094E0415080409040E1F700C0000082B3DA
S11300C0880F82BB2F5F3F4F283031057CF3D3CF9D
S10700D0F894FFCFCE
S9030000FC
