S01100004C43445F5461736B342E737265631A
S11300000C942A000C9447000C9447000C9447006D
S11300100C9447000C9447000C9447000C94470040
S11300200C9447000C9447000C9447000C94470030
S11300300C9447000C9447000C9447000C94470020
S11300400C9447000C9447000C9447000C94470010
S11300500C94470011241FBECFE5D8E0DEBFCDBF0E
S113006010E0A0E6B0E0E4E6FAE002C005900D92EC
S1130070AA3FB107D9F721E0AAEFB0E001C01D9271
S1130080A030B207E1F70E94B1040C9430050C943F
S113009000008FEF8ABB8EE087BB8FE084BB11BA70
S11300A00895863029F118F4853039F008958730A1
S11300B0D1F1883009F452C00895413059F42BB37A
S11300C081E090E002C0880F991F6A95E2F7822BC5
S11300D08BBB089541115CC02BB381E090E002C05A
S11300E0880F991F6A95E2F7809582238BBB089548
S11300F0413059F428B381E090E002C0880F991F81
S11301006A95E2F7822B88BB0895411141C028B358
S113011081E090E002C0880F991F6A95E2F780950C
S1130120822388BB0895413059F425B381E090E0DF
S113013002C0880F991F6A95E2F7822B85BB089548
S1130140411126C025B381E090E002C0880F991FB9
S11301506A95E2F78095822385BB0895413059F46E
S113016022B381E090E002C0880F991F6A95E2F7FC
S1130170822B82BB089541110BC022B381E090E031
S113018002C0880F991F6A95E2F78095822382BB8B
S11301900895863099F018F4853031F02DC08730F9
S11301A0B9F08830F9F028C089B390E002C0959581
S11301B087956A95E2F7817089BB089586B390E0CC
S11301C002C0959587956A95E2F7817086BB08957C
S11301D083B390E002C0959587956A95E2F78170A4
S11301E083BB089580B390E002C0959587956A9586
S11301F0E2F7817080BB08958FEF0895863059F03F
S113020018F4853031F00895873039F0883039F0AA
S113021008956BBB089568BB089568BB089562BBDD
S1130220089541E060E087E00E94510041E061E010
S113023087E00E94510041E062E087E00E945100A3
S113024041E063E087E00E94510041E064E087E020
S11302500E94510041E065E087E00E94510041E0C6
S113026066E087E00E94510041E067E087E00E9479
S11302705100089540E060E087E00E94510041E0B1
S113028061E087E00E94510041E062E087E00E9463
S1130290510041E063E087E00E94510064E087E0A0
S11302A00E94C900882309F49CC065E087E00E948D
S11302B0C900882309F497C066E087E00E94C9005A
S11302C0882309F492C041E060E087E00E94510075
S11302D040E061E087E00E94510041E062E087E095
S11302E00E94510041E063E087E00E94510064E015
S11302F087E00E94C900882309F479C065E087E09B
S11303000E94C900882309F474C066E087E00E9453
S1130310C900882309F46FC041E060E087E00E94CF
S1130320510041E061E087E00E94510040E062E05A
S113033087E00E94510041E063E087E00E945100A1
S113034064E087E00E94C900882309F456C065E090
S113035087E00E94C900882309F451C066E087E061
S11303600E94C900882309F44CC041E060E087E0A2
S11303700E94510041E061E087E00E94510041E0A9
S113038062E087E00E94510040E063E087E00E9461
S1130390510064E087E00E94C9008823A1F165E070
S11303A087E00E94C900882381F166E087E00E940B
S11303B0C900882361F141E060E087E00E945100B8
S11303C041E061E087E00E94510041E062E087E0A3
S11303D00E94510041E063E087E00E94510080E008
S11303E0089581E3089582E3089583E3089584E3FF
S11303F0089585E3089586E3089587E3089588E3DF
S1130400089589E308958AE2089580E3089583E2D4
S11304100895CF93C82F41E061E086E00E94510027
S113042040E062E086E00E9451006C2F607F85E02E
S11304300E94FE0041E063E086E00E9451008FE9E3
S11304409FE00197F1F700C0000040E063E086E020
S11304500E9451008FE99FE00197F1F700C000006E
S11304606C2F6295607F85E00E94FE0041E063E0AE
S113047086E00E9451008FE99FE00197F1F700C0E8
S1130480000040E063E086E00E9451008FE99FE0B5
S11304900197F1F700C00000CF910895CF93C82FC2
S11304A040E061E086E00E94510040E062E086E0C6
S11304B00E9451006C2F607F85E00E94FE0041E0A5
S11304C063E086E00E9451008FE99FE00197F1F715
S11304D000C0000040E063E086E00E9451008FE924
S11304E09FE00197F1F700C000006C2F6295607FD8
S11304F085E00E94FE0041E063E086E00E94510036
S11305008FE99FE00197F1F700C0000040E063E04D
S113051086E00E9451008FE99FE00197F1F700C047
S11305200000CF9108952FE785EB91E021508040A2
S11305309040E1F700C0000083E30E944E0282E392
S11305400E944E0288E20E944E028FE99FE00197CA
S1130550F1F700C000008CE00E944E028FE99FE09A
S11305600197F1F700C0000081E00E944E028FE382
S11305709FE10197F1F700C0000086E00E944E025F
S1130580089581E00E944E028FE39FE10197F1F705
S113059000C000000895CF93DF9300D000D0CDB702
S11305A0DEB7198290E49A8394E19B8394E59C835B
S11305B0623008F060E0EAEFF0E083836483E1E016
S11305C0F0E0EC0FFD1FE60FF11D9081890F8068AC
S11305D00E944E020F900F900F900F90DF91CF91D9
S11305E00895CF93DF93EA010E94CB0229C0809142
S11305F0FD00803148F0EAEFF0E0138264816F5F20
S1130600648380E00E94CB0288818A3049F4EAEF57
S1130610F0E064816F5F648383810E94CB020FC02A
S11306208D3031F46091FE0080E00E94CB0207C05F
S11306300E940902EAEFF0E083818F5F83832196B1
S113064088818111D4CFDF91CF910895CF93C42FA6
S11306500E94CB028C2F0E940902CF9108950E9420
S1130660090208950F931F93CF938B01877090E035
S1130670880F991F880F991F880F991F80640E9403
S11306804E02C0E007C0F801EC0FF11D80810E940A
S11306902F03CF5FC830B8F3CF911F910F91089506
S11306A0FC0114821082118283E085830895CF9324
S11306B0DF93FC0182819081891304C0238191819D
S11306C0291759F0EF01638140E750E00E94F102DD
S11306D0698140E088810E942603DF91CF910895CB
S11306E0CF93DF93EC0142E750E061E08EE00E949B
S11306F0F1028C81805D0E942F0344E750E060E0AA
S11307008EE00E94F1028D81805D0E942F03DF91B3
S1130710CF9108950F931F93CF938C010E943A01B8
S1130720F8018683F801C6810E943A01C817D1F303
S1130730CF911F910F910895FC016081062E000C4A
S1130740770B2091FF0030E0F901EE0FFF1FE1511C
S1130750FF4F408150E06417750789F4FC01418123
S1130760042E000C550B220F331FF901E151FF4FEA
S1130770818190E04817590721F080E0089580E0D6
S1130780089581E00895FC018481853010F081E0B2
S1130790089580E008950E94C10246E750E060E0B9
S11307A082E00E94F10244E850E061E080E00E94AF
S11307B0F1022FEF87EA91E6215080409040E1F763
S11307C000C000000E94C10208950E94C10244E9D1
S11307D050E060E084E00E94F1024CE950E061E006
S11307E083E00E94F1022FEF83ED90E321508040DB
S11307F09040E1F700C000000E94C10246EA50E0C8
S113080060E084E00E94F1024FEA50E061E080E0A1
S11308100E94F10208950E94C10240EC50E060E0A1
S113082084E00E94F10249EC50E061E083E00E9420
S1130830F1022FEF83ED90E3215080409040E1F7E7
S113084000C000000E94C10246EA50E060E084E07B
S11308500E94F1024FEA50E061E080E00E94F10260
S11308600895CF93DF93EC010E94C10243ED50E061
S113087060E082E00E94F10240EE50E061E081E03D
S11308800E94F1022FEF89E698E1215080409040C8
S1130890E1F700C000000E94C1028D8181508D8368
S11308A0811114C00E94C1020E940B042FEF8DE33A
S11308B099E4215080409040E1F700C00000CE014F
S11308C00E9450031092FF000E94C102DF91CF9159
S11308D00895CF93DF93EC0128812A8399819B8328
S11308E08E81863311F42F5F2883843319F4288191
S11308F021502883883311F49F5F9983823319F43C
S113090089818150898388818E302CF08DE08883A1
S1130910CE010E943104898182302CF081E08983E8
S1130920CE010E9431048881882324F41882CE01E8
S11309300E9431048981882324F41982CE010E9403
S11309403104DF91CF910895E091FF00F0E0EE0FC4
S1130950FF1FE151FF4F41E0618180810E94260326
S11309600895CF93DF93CDB7DEB767970FB6F894AA
S1130970DEBF0FBECDBF0E9449000E9493020E94B9
S11309801101CE0101960E94500388E0E0E6F0E0F8
S1130990DE01189601900D928A95E1F788E0E8E669
S11309A0F0E0DE01509601900D928A95E1F7BE01C8
S11309B0685F7F4F80E00E943203BE01605F7F4F1B
S11309C081E00E9432030E94CB030E94A404CE0162
S11309D001960E945703CE0101960E947003CE0136
S11309E001960E948A03CE0101960E946904CE01F9
S11309F001960E949C03882341F08D818F5F8D8333
S1130A008091FF008F5F8093FF00CE0101960E94CA
S1130A10C3038823A1F00E94E5032FEF8DE399E43B
S1130A20215080409040E1F700C00000CE010196C3
S1130A300E9450031092FF000E94C102C4CF0E9482
S1130A40A404CE0101960E945703CE0101960E9490
S1130A5070038FE39CE90197F1F700C00000BFCF5A
S1070A60F894FFCF34
S1130A640E0E040E15040A0A000A1F1F1F0E0400AA
S1130A74200053004C0054686520436F6C6C65631C
S1130A84746F72004120506C6174666F726D2047FC
S1130A94616D6500596F752057696E004772656111
S1130AA474204A6F620047616D6520446576004B8B
S1130AB468616C6964536861726166456C446E0074
S1130AC4596F75204C6F73650047616D65204F76CF
S1130AD465720044756465204361726566756C00D3
S1130AE4446F6E27742046616C6C206F6666000543
S10D0AF4010A0000010D01030000D7
S9030000FC
