S01200004175746F436F6E7465722E737265630E
S11300000C942A000C9447000C9447000C9447006D
S11300100C9447000C9447000C9447000C94470040
S11300200C9447000C9449000C9447000C9447002E
S11300300C9447000C9447000C9447000C94470020
S11300400C9447000C9447000C9447000C94470010
S11300500C94470011241FBECFE5D8E0DEBFCDBF0E
S113006010E0A0E6B0E0E8E1F2E002C005900D92F5
S1130070A437B107D9F720E0A4E7B0E001C01D928E
S1130080A637B207E1F70E946B000C940A010C94A6
S113009000001F920F920FB60F9211248F939F931B
S11300A080917400909175000196909375008093EF
S11300B074008436910524F0109275001092740037
S11300C08BE791EE9DBD8CBD9F918F910F900FBEDC
S11300D00F901F901895CF93DF93CDB7DEB7649739
S11300E00FB6F894DEBF0FBECDBF8FE784BB83E0AD
S11300F081BB8BE791EE9DBD8CBD1FBC85E08EBDA1
S113010084E089BF84E1E0E6F0E0DE01119601902D
S11301100D928A95E1F72FEF41EE84E021504040A3
S11301208040E1F700C0000081E082BB8091740050
S1130130909175002AE030E0B9010E94E200FC01D0
S1130140EE0FFF1F81E090E08C0F9D1FE80FF91F59
S1130150808185BB9FEF40E782E091504040804022
S1130160E1F700C0000082E082BB809174009091AE
S11301707500B9010E94E200FB01EE0FFF1F81E050
S113018090E08C0F9D1FE80FF91F808185BB9FEFC6
S113019020E742E0915020404040E1F700C00000D9
S11301A080917400909175000196909375008093EE
S11301B07400843691050CF4B7CF10927500109238
S11301C07400B2CF97FB072E16F4009407D077FD86
S11301D009D00E94F60007FC05D03EF49095819565
S11301E09F4F0895709561957F4F0895AA1BBB1B7F
S11301F051E107C0AA1FBB1FA617B70710F0A61B23
S1130200B70B881F991F5A95A9F780959095BC0143
S10B0210CD010895F894FFCF1D
S11302183F0006005B004F0066006D007D0007008C
S10702287F006F00E0
S9030000FC
