S01000004144435F544553542E73726563AD
S11300000C94A7000C94C4000C94C4000C94C40079
S11300100C94C4000C94C4000C94C4000C94C4004C
S11300200C94C4000C94C4000C94C4000C94C4003C
S11300300C94C4000C94C4000C94C4000C94C4002C
S11300400C94C4000C94C4000C94C4000C94C4001C
S11300500C94C40000407A10F35A00A0724E1809A0
S11300600010A5D4E80000E87648170000E40B541B
S1130070020000CA9A3B000000E1F50500008096EA
S11300809800000040420F000000A086010000001C
S1130090102700000000E8030000000064000000D6
S11300A000000A00000000000100000000002C769F
S11300B0D888DC674F0823DFC1DFAE59E1B1B796BA
S11300C0E5E3E453C63AE651997696E8E6C2842617
S11300D0EB898C9B62ED407C6FFCEFBC9C9F40F2F3
S11300E0BAA56FA5F490055A2AF75C936B6CF9676F
S11300F06DC11BFCE0E40D47FEF520E6B500D0ED34
S1130100902E0300943577050080841E080000209B
S11301104E0A000000C80C333333330F986E128339
S11301201141EF8D2114893BE65516CFFEE6DB180D
S1130130D1844B381BF77C1D901DA4BBE4242032D2
S113014084725E228100C9F124ECA1E53D271124CB
S11301501FBECFE5D8E0DEBFCDBF10E0A0E6B0E023
S1130160E0EFFCE002C005900D92A636B107D9F786
S113017020E0A6E6B0E001C01D92AB36B207E1F77D
S11301800E94B1020C9476060C94000086B180683B
S113019086B9089597B19F7397B927B130E4839FC7
S11301A0C0011124822B87B9089597B19F7D97B917
S11301B027B130E2839FC0011124822B87B90895AF
S11301C096B1987F96B996B1892B86B9089586B170
S11301D08F7D86B9089581E00E94CA0080E00E9464
S11301E0D50087E00E94E0000E94E7000E94C6005C
S11301F0089597B1907E97B997B1892B87B986B145
S1130200806486B93699FECF24B185B1837090E0BD
S1130210982F8827822B08958DEF8ABB8EE087BBA9
S113022014BA11BA0895863029F118F4853039F0DA
S113023008958730D1F1883009F452C008954130CF
S113024059F42BB381E090E002C0880F991F6A959E
S1130250E2F7822B8BBB089541115CC02BB381E084
S113026090E002C0880F991F6A95E2F78095822377
S11302708BBB0895413059F428B381E090E002C06B
S1130280880F991F6A95E2F7822B88BB0895411164
S113029041C028B381E090E002C0880F991F6A959D
S11302A0E2F78095822388BB0895413059F425B341
S11302B081E090E002C0880F991F6A95E2F7822BD3
S11302C085BB0895411126C025B381E090E002C0AA
S11302D0880F991F6A95E2F78095822385BB08955C
S11302E0413059F422B381E090E002C0880F991F95
S11302F06A95E2F7822B82BB089541110BC022B3A9
S113030081E090E002C0880F991F6A95E2F780951A
S1130310822382BB0895863059F018F4853031F079
S11303200895873039F0883039F008956BBB08950B
S113033068BB089568BB089562BB0895CF93C82F26
S113034041E061E086E00E94130140E062E086E063
S11303500E9413016C2F607F85E00E948B0141E0B5
S113036063E086E00E9413018FE99FE00197F1F7B3
S113037000C0000040E063E086E00E9413018FE9C2
S11303809FE00197F1F700C000006C2F6295607F39
S113039085E00E948B0141E063E086E00E94130146
S11303A08FE99FE00197F1F700C0000040E063E0AF
S11303B086E00E9413018FE99FE00197F1F700C0E6
S11303C00000CF910895CF93C82F40E061E086E00C
S11303D00E94130140E062E086E00E9413016C2F4A
S11303E0607F85E00E948B0141E063E086E00E942B
S11303F013018FE99FE00197F1F700C0000040E08E
S113040063E086E00E9413018FE99FE00197F1F712
S113041000C000006C2F6295607F85E00E948B0114
S113042041E063E086E00E9413018FE99FE00197B9
S1130430F1F700C0000040E063E086E00E94130191
S11304408FE99FE00197F1F700C00000CF91089574
S11304502FE785EB91E0215080409040E1F700C008
S1130460000083E30E94E30182E30E94E30188E247
S11304700E94E3018FE99FE00197F1F700C00000BB
S11304808CE00E94E3018FE99FE00197F1F700C03F
S1130490000081E00E94E3018FE39FE10197F1F7FF
S11304A000C0000086E00E94E3010895CF93DF932B
S11304B000D000D0CDB7DEB7198290E49A8394E1DE
S11304C09B8394E59C83623008F060E0E6E6F0E00C
S11304D083836483E1E0F0E0EC0FFD1FE60FF11D80
S11304E09081890F80680E94E3010F900F900F9014
S11304F00F90DF91CF910895CF93DF93EA010E948B
S1130500560229C080916900803148F0E6E6F0E0A7
S1130510138264816F5F648380E00E945602888145
S11305208A3049F4E6E6F0E064816F5F6483838196
S11305300E9456020FC08D3031F460916A0080E051
S11305400E94560207C00E949E01E6E6F0E0838105
S11305508F5F8383219688818111D4CFDF91CF91DE
S11305600895CF93DF93CDB7DEB72A970FB6F894EB
S1130570DEBF0FBECDBF0E940C010E9428020E9464
S1130580EB0081E090E00E94F900BC0180E090E083
S11305900E94F20220E030E040EA50E40E942F037F
S11305A020E030E040E85AE30E942F038E010F5F01
S11305B01F4F25E042E00E94ED03A80160E080E0C7
S11305C00E947C0240E650E060E088E00E947C02E9
S11305D02FEF89EF90E0215080409040E1F700C078
S11305E00000CFCFE89409C097FB3EF49095809526
S11305F0709561957F4F8F4F9F4F9923A9F0F92FE5
S113060096E9BB279395F695879577956795B79562
S1130610F111F8CFFAF4BB0F11F460FF1BC06F5F48
S11306207F4F8F4F9F4F16C0882311F096E911C05A
S1130630772321F09EE8872F762F05C0662371F07B
S113064096E8862F70E060E02AF09A95660F771F8F
S1130650881FDAF7880F9695879597F908950E9471
S113066042030C94B3030E94A50338F00E94AC0328
S113067020F0952311F00C949C030C94A2031124F4
S11306800C94E7030E94C40370F3959FC1F3950F84
S113069050E0551F629FF001729FBB27F00DB11D02
S11306A0639FAA27F00DB11DAA1F649F6627B00D92
S11306B0A11D661F829F2227B00DA11D621F739F7B
S11306C0B00DA11D621F839FA00D611D221F749F89
S11306D03327A00D611D231F849F600D211D822FD0
S11306E0762F6A2F11249F5750409AF0F1F08823F7
S11306F04AF0EE0FFF1FBB1F661F771F881F915024
S11307005040A9F79E3F510580F00C949C030C9433
S1130710E7035F3FE4F3983ED4F3869577956795B6
S1130720B795F795E7959F5FC1F7FE2B880F911D4D
S11307309695879597F9089597F99F6780E870E0F3
S113074060E008959FEF80EC089500240A94161643
S1130750170618060906089500240A9412161306AB
S1130760140605060895092E0394000C11F4882339
S113077052F0BB0F40F4BF2B11F460FF04C06F5F55
S11307807F4F8F4F9F4F089557FD9058440F551F2B
S113079059F05F3F71F04795880F97FB991F61F0FF
S11307A09F3F79F087950895121613061406551F76
S11307B0F2CF4695F1DF08C0161617061806991FE2
S11307C0F1CF86957105610508940895E894BB27D7
S11307D066277727CB0197F90895EF920F931F931C
S11307E0CF93DF93E80147FD02C034E001C034E158
S11307F0042E000C550B57FF03C051954195510928
S1130800E32E022F242FAE010E940D04CE01DF91AE
S1130810CF911F910F91EF900895A9E0B0E0E3E12B
S1130820F4E00C9445066A01122FB02E2BE3201736
S113083020F0FF24F394F00E02C02CE3F22E0F2DCF
S113084027E0AE014F5F5F4F0E946705BC014981FD
S1130850842F8970813031F0E1FC06C0E0FE06C0CF
S113086090E205C09DE203C09BE201C090E05E2DD2
S1130870507143FF3CC0911102C083E001C084E089
S1130880811718F4212F281B01C020E051110BC03F
S1130890F601822F30E2882319F031938150FBCF87
S11308A0C20ED11C20E0992329F0D6019C93F601B5
S11308B031966F01C6010396E2FE0AC03EE4D601FA
S11308C03C9341E411964C93119712963C9306C0C5
S11308D03EE6F601308341E641833283FC01322F48
S11308E040E2332309F442C041933150FACF42FF2E
S11308F044C0911102C083E001C084E0811718F460
S1130900212F281B01C020E051110BC0F601822FBA
S113091030E2882319F031938150FBCFC20ED11CF1
S113092020E0992329F0D6019C93F60131966F01BA
S1130930C6010396E2FE0BC039E4D6013C933EE4C3
S113094011963C93119736E412963C9307C039E60E
S1130950F60130833EE6318336E63283FC01322FE2
S113096040E2332319F041933150FBCFFC01E20FF5
S1130970F11D10828EEF9FEFA6C021E030E09111AF
S113098002C020E030E0161617061CF4FB01319675
S113099002C0E1E0F0E02E0F3F1FBB2021F0EB2D61
S11309A0F0E0319602C0E0E0F0E02E0F3F1FE12FAF
S11309B0F0E02E173F071CF4121B212F01C020E08A
S11309C08E2D887159F4F601822F30E2882319F0B4
S11309D031938150FBCFC20ED11C20E0992329F022
S11309E0D6019C93F60131966F0151110BC0F601AB
S11309F0822F90E3882319F091938150FBCFC20E8C
S1130A00D11C20E00F2D060F9A81342F307144FF42
S1130A1003C0913309F40150101624F4093018F07E
S1130A2008E001C001E0AB0177FF02C040E050E004
S1130A30FB01E41BF50BA1E0B0E0AC0FBD1FEA0F16
S1130A40FB1F8EE2A82E4B01801A91080B2D10E09B
S1130A501195019511094F3FBFEF5B0721F4D601B2
S1130A60AC9211966D01641775072CF084169506E7
S1130A7014F4818101C080E3415051093196D601BB
S1130A8011967D014017510724F0D6018C9367011C
S1130A90E2CF6417750739F4963320F4953319F4CB
S1130AA0311101C081E3F6018083F701822F90E2C6
S1130AB0882319F091938150FBCFF701E20FF11DC8
S1130AC0108280E090E02996ECE00C9461062830D6
S1130AD008F027E03327DA01990F311D87FD916073
S1130AE000966105710539F432602E5F3D9330E361
S1130AF02A95E1F708959F3F30F08038710561052C
S1130B0009F03C5F3C5F3D93913008F08068911D93
S1130B10DF93CF931F930F93FF92EF92192F987F38
S1130B209695E92F96959695E90FFF27E255FF4F85
S1130B3099273327EE24FF24A701E70105900894A1
S1130B40079428F4360FE71EF81E491F511D660F3F
S1130B50771F881F991F0694A1F70590079428F41E
S1130B60E70EF81E491F561FC11D770F881F991FD6
S1130B70661F0694A1F70590079428F4F80E491F00
S1130B80561FC71FD11D880F991F661F771F069414
S1130B90A1F70590079420F4490F561FC71FD81FCB
S1130BA0990F661F771F881F0694A9F784911095E3
S1130BB0177041F0D695C79557954795F794E794E4
S1130BC01A95C1F7E4E5F0E0689415901591359114
S1130BD06591959105907FE27395E118F10A430BB5
S1130BE0560BC90BD009C0F7E10CF11E431F561F69
S1130BF0C91FD01D7EF4703311F48A95E6CFE894B2
S1130C00015030F0080F0AF40027021708F4202FCF
S1130C102395022F7A3328F079E37D932A95E9F717
S1130C2010C07D932A9589F6069497956795379514
S1130C3017951794E118F10A430B560BC90BD00909
S1130C4098F023957E9173957A3308F070E37C9342
S1130C502013B8F77E9170617D9330F0839571E332
S1130C607D9370E32A95E1F71124EF90FF900F91A3
S1130C701F91CF91DF91992787FD909508952F9229
S1130C803F924F925F926F927F928F929F92AF9218
S1130C90BF92CF92DF92EF92FF920F931F93CF9365
S1130CA0DF93CDB7DEB7CA1BDB0B0FB6F894DEBFFC
S1130CB00FBECDBF09942A88398848885F846E8422
S1130CC07D848C849B84AA84B984C884DF80EE806C
S1130CD0FD800C811B81AA81B981CE0FD11D0FB675
S1130CE0F894DEBF0FBECDBFED010895F894FFCF99
S1090CF0566F6C747300E2
S9030000FC
