:100000000C942A000C9434000C9434000C943400AA
:100010000C9434000C9434000C9434000C94340090
:100020000C9434000C9434000C9434000C94340080
:100030000C9434000C9434000C9434000C94340070
:100040000C9434000C9434000C9434000C94340060
:100050000C94340011241FBECFE5D8E0DEBFCDBF25
:100060000E9436000C94BB000C9400008FEF84BB00
:1000700081BB15BA12BA20E030E037C062B380E825
:1000800090E0AC01022E02C0559547950A94E2F724
:10009000462B42BB42B3B9016F5F7F4F062E02C0B1
:1000A000959587950A94E2F7842B82BB75B381E01E
:1000B00090E0AC01022E02C0440F551F0A94E2F7F3
:1000C000472B45BB45B302C0880F991F6A95E2F7DD
:1000D000842B85BB4FEF84E39CE0415080409040EF
:1000E000E1F700C000002E5F3F4F2830310534F2A9
:1000F00020E030E03CC052B381E090E0BC01022E31
:1001000002C0660F771F0A94E2F7462F40954523F9
:1001100042BB42B3F90131960E2E02C0880F991FDF
:100120000A94E2F78095842382BB55B380E890E07F
:10013000BC01022E02C0759567950A94E2F7462F1E
:100140004095452345BB45B302C095958795EA95F3
:10015000E2F78095842385BB4FEF84E39CE0415018
:1001600080409040E1F700C000002E5F3F4F2830F4
:0A01700031050CF280CFF894FFCFA8
:00000001FF
