:100000000C942A000C943C000C943C000C943C0092
:100010000C943C000C943C000C943C000C943C0070
:100020000C943C000C943C000C9424010C94FD00B6
:100030000C943C000C943C000C943C000C943C0050
:100040000C943C000C943C000C943C000C943C0040
:100050000C943C0011241FBECFE5D8E0DEBFCDBF1D
:1000600020E0A0E6B0E001C01D92A436B207E1F79F
:100070000E9488000C944B010C94000086B18068AB
:1000800086B9089597B19F7397B927B130E4839FDC
:10009000C0011124822B87B9089597B19F7D97B92C
:1000A00027B130E2839FC0011124822B87B90895C4
:1000B00096B1987F96B996B1892B86B9089586B185
:1000C0008F7D86B9089581E00E94420081E00E9400
:1000D0004D0087E00E9458000E945F000E943E0091
:1000E000089596B19F7B96B997B1907E97B997B1D5
:1000F000892B87B986B1806486B93699FECF85B1E0
:1001000008951ABA8EE087BB14BA80E881BB0895BF
:100110000E94E3000E9481000E94630081E00E942F
:1001200071000E94FB00FACF813069F028F0823024
:1001300089F08330B1F0089585B58F7B85BD85B595
:10014000877F85BD089585B5806485BD85B5877F2A
:1001500085BD089585B58F7B85BD85B5886085BDD6
:10016000089585B5806485BD85B5886085BD089591
:10017000813069F028F0823089F08330B1F0089541
:1001800085B58F7E85BD85B58F7D85BD089585B587
:10019000806185BD85B58F7D85BD089585B58F7ED0
:1001A00085BD85B5806285BD089585B5806185BDB5
:1001B00085B5806285BD089595B5987F95BD95B547
:1001C000892B85BD089583E00E94940085E00E94FC
:1001D000DC0082E00E94B80089B78F7789BF89B7B9
:1001E0008F7B89BF88B78F7788BF88B78F7B88BFA1
:1001F00014BC13BC089583BD08951F920F920FB6CF
:100200000F9211242F933F934F935F936F937F939C
:100210008F939F93AF93BF93EF93FF93E09162000F
:10022000F09163000995FF91EF91BF91AF919F917C
:100230008F917F916F915F914F913F912F910F908F
:100240000FBE0F901F9018951F920F920FB60F922E
:1002500011242F933F934F935F936F937F938F93CB
:100260009F93AF93BF93EF93FF93E0916000F09162
:1002700061000995FF91EF91BF91AF919F918F918F
:100280007F916F915F914F913F912F910F900FBE92
:0A0290000F901F901895F894FFCF0F
:00000001FF
