S011000053746F7057617463682E7372656376
S11300000C942A000C9447000C9447000C9447006D
S11300100C9447000C9447000C9447000C94470040
S11300200C9447000C9447000C9447000C94470030
S11300300C9447000C9447000C9447000C94470020
S11300400C9447000C9447000C9447000C94470010
S11300500C94470011241FBECFE5D8E0DEBFCDBF0E
S113006010E0A0E6B0E0E6E0F4E002C005900D92F6
S1130070A637B107D9F720E0A6E7B0E001C01D928A
S1130080A439B207E1F70E9449000C9401020C94D0
S11300900000CF93DF93CDB7DEB768970FB6F8941F
S11300A0DEBF0FBECDBF1ABA8FE784BB8FE381BB1F
S11300B087E08BBB84E1E1E6F0E0DE01119601907C
S11300C00D928A95E1F72FEF81EE94E02150804064
S11300D09040E1F700C0000081E082BBE091800025
S11300E0F0918100EE0FFF1F81E090E08C0F9D1FC7
S11300F0E80FF91F808185BB85B3806885BB8FE1DC
S11301009EE40197F1F700C0000082E082BBE09119
S11301107E00F0917F00EE0FFF1F81E090E08C0FD6
S11301209D1FE80FF91F808185BB8FE19EE4019735
S1130130F1F700C0000084E082BBE0917C00F09104
S11301407D00EE0FFF1F81E090E08C0F9D1FE80FF4
S1130150F91F808185BB85B3806885BB8FE19EE4F0
S11301600197F1F700C0000088E082BBE0917A00BB
S1130170F0917B00EE0FFF1F81E090E08C0F9D1F3C
S1130180E80FF91F808185BB8FE19EE40197F1F7A9
S113019000C0000080E182BBE0917800F09179001A
S11301A0EE0FFF1F81E090E08C0F9D1FE80FF91FF9
S11301B0808185BB85B3806885BB8FE19EE4019710
S11301C0F1F700C0000080E282BBE0918200F09170
S11301D08300EE0FFF1F81E090E08C0F9D1FE80F5E
S11301E0F91F808185BB8FE19EE40197F1F700C080
S11301F00000C89909C081E08093770010927600CE
S113020010926000C89BFECFC99909C01092770074
S113021081E08093760010926000C99BFECFCA995A
S113022009C0109277001092760081E080936000FC
S1130230CA9BFECF80917600813021F41092770022
S11302401092600080916000813061F41092770018
S113025010926000109290001092910010929200FF
S113026010929300809177008130B9F480919000CE
S113027090919100A0919200B09193000196A11DDC
S1130280B11D8093900090939100A0939200B0933D
S1130290930010927600109260004090900050906D
S11302A0910060909200709093000F2EFCE38F2ECB
S11302B0912CA12CB12CF02DC301B201A501940104
S11302C00E94C0012D8B3E8B4F8B588F609384000E
S11302D07093850080938600909387000F2EFAE038
S11302E0CF2ED12CE12CF12CF02DA70196010E94E8
S11302F0C001709379006093780030937B00209361
S11303007A006D897E898F89988DA50194010E9458
S1130310C001609388007093890080938A00909351
S11303208B00A70196010E94C00170937D00609329
S11303307C0030937F0020937E00C301B20120E152
S11303403EE040E050E00E94C001CA01B901A501AD
S113035094010E94C00160938C0070938D0080937F
S11303608E0090938F00A70196010E94C0017093A4
S11303708100609380003093830020938200ACCE90
S1130380052E97FB1EF400940E94D70157FD07D059
S11303900E94DF0107FC03D04EF40C94D701509562
S11303A04095309521953F4F4F4F5F4F089590955D
S11303B08095709561957F4F8F4F9F4F0895A1E26F
S11303C01A2EAA1BBB1BFD010DC0AA1FBB1FEE1FCB
S11303D0FF1FA217B307E407F50720F0A21BB30B16
S11303E0E40BF50B661F771F881F991F1A9469F792
S11303F060957095809590959B01AC01BD01CF01EE
S10904000895F894FFCFFB
S1130406013F0006005B004F0066006D007D00079B
S1090416007F006F0000EE
S9030000FC
