:100000000C942A000C9434000C9434000C943400AA
:100010000C9434000C9434000C9434000C94340090
:100020000C9434000C9434000C9434000C94340080
:100030000C9434000C9434000C9434000C94340070
:100040000C9434000C9434000C9434000C94340060
:100050000C94340011241FBECFE5D8E0DEBFCDBF25
:100060000E94E6000C9406010C94000081E08ABB1B
:1000700017BA14BA88E081BB0895863029F118F4C4
:10008000853039F008958730D1F1883009F452C0B5
:100090000895413059F42BB381E090E002C0880FFD
:1000A000991F6A95E2F7822B8BBB089541115CC0C2
:1000B0002BB381E090E002C0880F991F6A95E2F7A8
:1000C000809582238BBB0895413059F428B381E099
:1000D00090E002C0880F991F6A95E2F7822B88BBD7
:1000E0000895411141C028B381E090E002C0880F1B
:1000F000991F6A95E2F78095822388BB0895413065
:1001000059F425B381E090E002C0880F991F6A95E9
:10011000E2F7822B85BB0895411126C025B381E00B
:1001200090E002C0880F991F6A95E2F780958223BC
:1001300085BB0895413059F422B381E090E002C0BC
:10014000880F991F6A95E2F7822B82BB08954111AF
:100150000BC022B381E090E002C0880F991F6A951E
:10016000E2F78095822382BB0895863091F018F4DF
:10017000853031F029C08730A9F08830E1F024C003
:1001800089B390E002C0959587956A95E2F78170F2
:10019000089586B390E002C0959587956A95E2F739
:1001A0008170089583B390E002C0959587956A9514
:1001B000E2F78170089580B390E002C0959587952D
:1001C0006A95E2F7817008958FEF08950E943600D6
:1001D000C0E062E088E00E94B500813039F4C827B1
:1001E00062E088E00E94B5008130D1F3C11106C001
:1001F00041E063E088E00E943D00EBCFC13049F769
:1002000040E063E088E00E943D00E3CFF894FFCF38
:00000001FF
