:100000000C942A000C9434000C9434000C943400AA
:100010000C9434000C9434000C9434000C94340090
:100020000C9434000C9434000C9434000C94340080
:100030000C9434000C9434000C9434000C94340070
:100040000C9434000C9434000C9434000C94340060
:100050000C94340011241FBECFE5D8E0DEBFCDBF25
:100060000E9436000C9469000C94000084E884BB64
:1000700088E081BB84E085BB12BA2FEF39E688E1C6
:10008000215030408040E1F700C0000080E885BB8F
:100090009FEF29E638E1915020403040E1F700C061
:1000A000000015BA98E092BB9FEF29E638E1915025
:1000B00020403040E1F700C0000085BB12BA8FEF4E
:1000C00099E628E1815090402040E1F700C000000F
:0600D000D1CFF894FFCF30
:00000001FF
