:100000000C942A000C943C000C943E000C943C0090
:100010000C943C000C943C000C943C000C943C0070
:100020000C943C000C943C000C943C000C943C0060
:100030000C943C000C943C000C943C000C943C0050
:100040000C943C000C943C000C943C000C943C0040
:100050000C943C0011241FBECFE5D8E0DEBFCDBF1D
:1000600020E0A0E6B0E001C01D92A236B207E1F7A1
:100070000E9452000C94BC000C9400001F920F923E
:100080000FB60F9211248F939F9381E090E090938D
:100090006100809360009F918F910F900FBE0F9031
:1000A0001F9018958FE084BB87E081BB15BA88E06C
:1000B00082BB90E89BBF85BF78942FEF31EE44E080
:1000C000215030404040E1F700C0000082B3816021
:1000D00082BB82B38B7F82BB80E090E011C0209115
:1000E000600030916100232B71F485BB2FEF31EE5E
:1000F00044E0215030404040E1F700C0000001964C
:100100008A30910564F382B3826082BB82B38E7FB2
:1001100082BB80E090E011C02091600030916100CE
:10012000232B71F485BB2FEF31EE44E0215030409A
:100130004040E1F700C0000001968330910564F370
:1001400082B3846082BB82B38D7F82BB80E090E00B
:100150000BC085BB2FEF31EE44E0215030404040D2
:10016000E1F700C0000001968A30910594F31092E7
:0C017000610010926000AACFF894FFCF4D
:00000001FF
